{
  "contractName": "Evidence",
  "abi": [
    {
      "anonymous": false,
      "inputs": [
        {
          "indexed": true,
          "internalType": "address",
          "name": "owner",
          "type": "address"
        },
        {
          "indexed": false,
          "internalType": "string",
          "name": "cid",
          "type": "string"
        },
        {
          "indexed": false,
          "internalType": "string",
          "name": "name",
          "type": "string"
        }
      ],
      "name": "EvidenceAdded",
      "type": "event"
    },
    {
      "inputs": [
        {
          "internalType": "string",
          "name": "_cid",
          "type": "string"
        },
        {
          "internalType": "string",
          "name": "_originalName",
          "type": "string"
        },
        {
          "internalType": "string",
          "name": "_mimeType",
          "type": "string"
        },
        {
          "internalType": "string",
          "name": "_hash",
          "type": "string"
        },
        {
          "internalType": "string",
          "name": "_encryptedPassword",
          "type": "string"
        },
        {
          "internalType": "string",
          "name": "_name",
          "type": "string"
        },
        {
          "internalType": "string",
          "name": "_description",
          "type": "string"
        }
      ],
      "name": "addEvidence",
      "outputs": [],
      "stateMutability": "nonpayable",
      "type": "function"
    },
    {
      "inputs": [
        {
          "internalType": "uint256",
          "name": "_index",
          "type": "uint256"
        }
      ],
      "name": "getEvidence",
      "outputs": [
        {
          "internalType": "string",
          "name": "cid",
          "type": "string"
        },
        {
          "internalType": "string",
          "name": "originalName",
          "type": "string"
        },
        {
          "internalType": "string",
          "name": "mimeType",
          "type": "string"
        },
        {
          "internalType": "string",
          "name": "name",
          "type": "string"
        },
        {
          "internalType": "string",
          "name": "description",
          "type": "string"
        },
        {
          "internalType": "address",
          "name": "owner",
          "type": "address"
        },
        {
          "internalType": "uint256",
          "name": "timestamp",
          "type": "uint256"
        }
      ],
      "stateMutability": "view",
      "type": "function",
      "constant": true
    },
    {
      "inputs": [],
      "name": "getEvidenceCount",
      "outputs": [
        {
          "internalType": "uint256",
          "name": "",
          "type": "uint256"
        }
      ],
      "stateMutability": "view",
      "type": "function",
      "constant": true
    }
  ],
  "bytecode": "0x608060405234801561001057600080fd5b50610e13806100206000396000f3fe608060405234801561001057600080fd5b50600436106100415760003560e01c80635144db4714610046578063b8d4448714610062578063c956f14314610080575b600080fd5b610060600480360381019061005b9190610920565b6100b6565b005b61006a6102af565b6040516100779190610c0f565b60405180910390f35b61009a60048036038101906100959190610a66565b6102bb565b6040516100ad9796959493929190610b5d565b60405180910390f35b60006040518061012001604052808981526020018881526020018781526020018681526020018581526020014281526020018481526020018381526020013373ffffffffffffffffffffffffffffffffffffffff1681525090806001815401808255809150506001900390600052602060002090600902016000909190919091506000820151816000019080519060200190610153929190610800565b506020820151816001019080519060200190610170929190610800565b50604082015181600201908051906020019061018d929190610800565b5060608201518160030190805190602001906101aa929190610800565b5060808201518160040190805190602001906101c7929190610800565b5060a0820151816005015560c08201518160060190805190602001906101ee929190610800565b5060e082015181600701908051906020019061020b929190610800565b506101008201518160080160006101000a81548173ffffffffffffffffffffffffffffffffffffffff021916908373ffffffffffffffffffffffffffffffffffffffff16021790555050503373ffffffffffffffffffffffffffffffffffffffff167f9b3900378e70e4d8c9bcbfd96239dabe08168689531907a58017fd0fdeb3c5ac888460405161029e929190610b26565b60405180910390a250505050505050565b60008080549050905090565b6060806060806060600080600080549050881061030d576040517f08c379a000000000000000000000000000000000000000000000000000000000815260040161030490610bef565b60405180910390fd5b6000808981548110610348577f4e487b7100000000000000000000000000000000000000000000000000000000600052603260045260246000fd5b90600052602060002090600902016040518061012001604052908160008201805461037290610d25565b80601f016020809104026020016040519081016040528092919081815260200182805461039e90610d25565b80156103eb5780601f106103c0576101008083540402835291602001916103eb565b820191906000526020600020905b8154815290600101906020018083116103ce57829003601f168201915b5050505050815260200160018201805461040490610d25565b80601f016020809104026020016040519081016040528092919081815260200182805461043090610d25565b801561047d5780601f106104525761010080835404028352916020019161047d565b820191906000526020600020905b81548152906001019060200180831161046057829003601f168201915b5050505050815260200160028201805461049690610d25565b80601f01602080910402602001604051908101604052809291908181526020018280546104c290610d25565b801561050f5780601f106104e45761010080835404028352916020019161050f565b820191906000526020600020905b8154815290600101906020018083116104f257829003601f168201915b5050505050815260200160038201805461052890610d25565b80601f016020809104026020016040519081016040528092919081815260200182805461055490610d25565b80156105a15780601f10610576576101008083540402835291602001916105a1565b820191906000526020600020905b81548152906001019060200180831161058457829003601f168201915b505050505081526020016004820180546105ba90610d25565b80601f01602080910402602001604051908101604052809291908181526020018280546105e690610d25565b80156106335780601f1061060857610100808354040283529160200191610633565b820191906000526020600020905b81548152906001019060200180831161061657829003601f168201915b505050505081526020016005820154815260200160068201805461065690610d25565b80601f016020809104026020016040519081016040528092919081815260200182805461068290610d25565b80156106cf5780601f106106a4576101008083540402835291602001916106cf565b820191906000526020600020905b8154815290600101906020018083116106b257829003601f168201915b505050505081526020016007820180546106e890610d25565b80601f016020809104026020016040519081016040528092919081815260200182805461071490610d25565b80156107615780601f1061073657610100808354040283529160200191610761565b820191906000526020600020905b81548152906001019060200180831161074457829003601f168201915b505050505081526020016008820160009054906101000a900473ffffffffffffffffffffffffffffffffffffffff1673ffffffffffffffffffffffffffffffffffffffff1673ffffffffffffffffffffffffffffffffffffffff168152505090508060000151816020015182604001518360c001518460e001518561010001518660a00151975097509750975097509750975050919395979092949650565b82805461080c90610d25565b90600052602060002090601f01602090048101928261082e5760008555610875565b82601f1061084757805160ff1916838001178555610875565b82800160010185558215610875579182015b82811115610874578251825591602001919060010190610859565b5b5090506108829190610886565b5090565b5b8082111561089f576000816000905550600101610887565b5090565b60006108b66108b184610c5b565b610c2a565b9050828152602081018484840111156108ce57600080fd5b6108d9848285610ce3565b509392505050565b600082601f8301126108f257600080fd5b81356109028482602086016108a3565b91505092915050565b60008135905061091a81610dc6565b92915050565b600080600080600080600060e0888a03121561093b57600080fd5b600088013567ffffffffffffffff81111561095557600080fd5b6109618a828b016108e1565b975050602088013567ffffffffffffffff81111561097e57600080fd5b61098a8a828b016108e1565b965050604088013567ffffffffffffffff8111156109a757600080fd5b6109b38a828b016108e1565b955050606088013567ffffffffffffffff8111156109d057600080fd5b6109dc8a828b016108e1565b945050608088013567ffffffffffffffff8111156109f957600080fd5b610a058a828b016108e1565b93505060a088013567ffffffffffffffff811115610a2257600080fd5b610a2e8a828b016108e1565b92505060c088013567ffffffffffffffff811115610a4b57600080fd5b610a578a828b016108e1565b91505092959891949750929550565b600060208284031215610a7857600080fd5b6000610a868482850161090b565b91505092915050565b610a9881610ca7565b82525050565b6000610aa982610c8b565b610ab38185610c96565b9350610ac3818560208601610cf2565b610acc81610db5565b840191505092915050565b6000610ae4601383610c96565b91507f496e646578206f7574206f6620626f756e6473000000000000000000000000006000830152602082019050919050565b610b2081610cd9565b82525050565b60006040820190508181036000830152610b408185610a9e565b90508181036020830152610b548184610a9e565b90509392505050565b600060e0820190508181036000830152610b77818a610a9e565b90508181036020830152610b8b8189610a9e565b90508181036040830152610b9f8188610a9e565b90508181036060830152610bb38187610a9e565b90508181036080830152610bc78186610a9e565b9050610bd660a0830185610a8f565b610be360c0830184610b17565b98975050505050505050565b60006020820190508181036000830152610c0881610ad7565b9050919050565b6000602082019050610c246000830184610b17565b92915050565b6000604051905081810181811067ffffffffffffffff82111715610c5157610c50610d86565b5b8060405250919050565b600067ffffffffffffffff821115610c7657610c75610d86565b5b601f19601f8301169050602081019050919050565b600081519050919050565b600082825260208201905092915050565b6000610cb282610cb9565b9050919050565b600073ffffffffffffffffffffffffffffffffffffffff82169050919050565b6000819050919050565b82818337600083830152505050565b60005b83811015610d10578082015181840152602081019050610cf5565b83811115610d1f576000848401525b50505050565b60006002820490506001821680610d3d57607f821691505b60208210811415610d5157610d50610d57565b5b50919050565b7f4e487b7100000000000000000000000000000000000000000000000000000000600052602260045260246000fd5b7f4e487b7100000000000000000000000000000000000000000000000000000000600052604160045260246000fd5b6000601f19601f8301169050919050565b610dcf81610cd9565b8114610dda57600080fd5b5056fea2646970667358221220828a5c39cc3bb6c875cd8ee97cee68fecb303058d4fa38700b80ac849a602c8e64736f6c63430008000033",
  "immutableReferences": {},
  "source": "// SPDX-License-Identifier: MIT\npragma solidity ^0.8.0;\n\ncontract Evidence {\n    struct EvidenceRecord {\n        string cid;\n        string originalName;\n        string mimeType;\n        string hash; \n        string encryptedPassword; // Updated field for security\n        uint256 timestamp;\n        string name; \n        string description; \n        address owner; \n    }\n\n    EvidenceRecord[] private evidenceRecords;  // Made private\n\n    event EvidenceAdded(address indexed owner, string cid, string name);\n\n    function addEvidence(\n        string memory _cid,\n        string memory _originalName,\n        string memory _mimeType,\n        string memory _hash,\n        string memory _encryptedPassword, // Updated\n        string memory _name,\n        string memory _description\n    ) public {\n        evidenceRecords.push(EvidenceRecord({\n            cid: _cid,\n            originalName: _originalName,\n            mimeType: _mimeType,\n            hash: _hash,\n            encryptedPassword: _encryptedPassword,\n            timestamp: block.timestamp,\n            name: _name,\n            description: _description,\n            owner: msg.sender\n        }));\n\n        emit EvidenceAdded(msg.sender, _cid, _name);\n    }\n\n    function getEvidence(uint256 _index) public view returns (\n        string memory cid,\n        string memory originalName,\n        string memory mimeType,\n        string memory name,\n        string memory description,\n        address owner,\n        uint256 timestamp\n    ) {\n        require(_index < evidenceRecords.length, \"Index out of bounds\");\n        EvidenceRecord memory evidence = evidenceRecords[_index];\n        return (\n            evidence.cid,\n            evidence.originalName,\n            evidence.mimeType,\n            evidence.name,\n            evidence.description,\n            evidence.owner,\n            evidence.timestamp\n        );\n    }\n\n    function getEvidenceCount() public view returns (uint256) {\n        return evidenceRecords.length;\n    }\n}\n",
  "sourcePath": "/Users/harshalpatil/Desktop/Private Workspace/Distributed-EMS-Backend/evidence-contract/contracts/Evidence.sol",
  "compiler": {
    "name": "solc",
    "version": "0.8.0+commit.c7dfd78e.Emscripten.clang"
  },
  "schemaVersion": "3.4.16",
  "updatedAt": "2025-01-26T09:10:37.049Z",
  "networkType": "ethereum",
  "devdoc": {
    "kind": "dev",
    "methods": {},
    "version": 1
  },
  "userdoc": {
    "kind": "user",
    "methods": {},
    "version": 1
  }
}