{
  "contractName": "Evidence",
  "abi": [
    {
      "inputs": [],
      "stateMutability": "nonpayable",
      "type": "constructor"
    },
    {
      "anonymous": false,
      "inputs": [
        {
          "indexed": true,
          "internalType": "uint256",
          "name": "evidenceId",
          "type": "uint256"
        },
        {
          "indexed": true,
          "internalType": "address",
          "name": "user",
          "type": "address"
        }
      ],
      "name": "AccessGranted",
      "type": "event"
    },
    {
      "anonymous": false,
      "inputs": [
        {
          "indexed": true,
          "internalType": "uint256",
          "name": "evidenceId",
          "type": "uint256"
        },
        {
          "indexed": true,
          "internalType": "address",
          "name": "user",
          "type": "address"
        }
      ],
      "name": "AccessRevoked",
      "type": "event"
    },
    {
      "anonymous": false,
      "inputs": [
        {
          "indexed": true,
          "internalType": "address",
          "name": "owner",
          "type": "address"
        },
        {
          "indexed": true,
          "internalType": "uint256",
          "name": "evidenceId",
          "type": "uint256"
        },
        {
          "indexed": false,
          "internalType": "string",
          "name": "name",
          "type": "string"
        }
      ],
      "name": "EvidenceAdded",
      "type": "event"
    },
    {
      "anonymous": false,
      "inputs": [
        {
          "indexed": true,
          "internalType": "address",
          "name": "user",
          "type": "address"
        },
        {
          "indexed": false,
          "internalType": "enum Evidence.Role",
          "name": "role",
          "type": "uint8"
        }
      ],
      "name": "RoleAssigned",
      "type": "event"
    },
    {
      "anonymous": false,
      "inputs": [
        {
          "indexed": true,
          "internalType": "uint256",
          "name": "evidenceId",
          "type": "uint256"
        },
        {
          "indexed": true,
          "internalType": "address",
          "name": "validator",
          "type": "address"
        }
      ],
      "name": "ValidatorAssigned",
      "type": "event"
    },
    {
      "inputs": [],
      "name": "ADMIN_ADDRESS",
      "outputs": [
        {
          "internalType": "address",
          "name": "",
          "type": "address"
        }
      ],
      "stateMutability": "view",
      "type": "function",
      "constant": true
    },
    {
      "inputs": [],
      "name": "evidenceCount",
      "outputs": [
        {
          "internalType": "uint256",
          "name": "",
          "type": "uint256"
        }
      ],
      "stateMutability": "view",
      "type": "function",
      "constant": true
    },
    {
      "inputs": [
        {
          "internalType": "address",
          "name": "",
          "type": "address"
        }
      ],
      "name": "userRoles",
      "outputs": [
        {
          "internalType": "enum Evidence.Role",
          "name": "",
          "type": "uint8"
        }
      ],
      "stateMutability": "view",
      "type": "function",
      "constant": true
    },
    {
      "inputs": [
        {
          "internalType": "address",
          "name": "_user",
          "type": "address"
        },
        {
          "internalType": "enum Evidence.Role",
          "name": "_role",
          "type": "uint8"
        }
      ],
      "name": "assignRole",
      "outputs": [],
      "stateMutability": "nonpayable",
      "type": "function"
    },
    {
      "inputs": [
        {
          "internalType": "address",
          "name": "_user",
          "type": "address"
        }
      ],
      "name": "getUserRole",
      "outputs": [
        {
          "internalType": "enum Evidence.Role",
          "name": "",
          "type": "uint8"
        }
      ],
      "stateMutability": "view",
      "type": "function",
      "constant": true
    },
    {
      "inputs": [
        {
          "internalType": "string",
          "name": "_cid",
          "type": "string"
        },
        {
          "internalType": "string",
          "name": "_originalName",
          "type": "string"
        },
        {
          "internalType": "string",
          "name": "_mimeType",
          "type": "string"
        },
        {
          "internalType": "string",
          "name": "_hash",
          "type": "string"
        },
        {
          "internalType": "string",
          "name": "_encryptedPassword",
          "type": "string"
        },
        {
          "internalType": "string",
          "name": "_name",
          "type": "string"
        },
        {
          "internalType": "string",
          "name": "_description",
          "type": "string"
        }
      ],
      "name": "addEvidence",
      "outputs": [],
      "stateMutability": "nonpayable",
      "type": "function"
    },
    {
      "inputs": [
        {
          "internalType": "uint256",
          "name": "_evidenceId",
          "type": "uint256"
        },
        {
          "internalType": "address",
          "name": "_validator",
          "type": "address"
        }
      ],
      "name": "assignValidator",
      "outputs": [],
      "stateMutability": "nonpayable",
      "type": "function"
    },
    {
      "inputs": [
        {
          "internalType": "uint256",
          "name": "_evidenceId",
          "type": "uint256"
        },
        {
          "internalType": "address",
          "name": "_user",
          "type": "address"
        }
      ],
      "name": "grantAccess",
      "outputs": [],
      "stateMutability": "nonpayable",
      "type": "function"
    },
    {
      "inputs": [
        {
          "internalType": "uint256",
          "name": "_evidenceId",
          "type": "uint256"
        },
        {
          "internalType": "address",
          "name": "_user",
          "type": "address"
        }
      ],
      "name": "revokeAccess",
      "outputs": [],
      "stateMutability": "nonpayable",
      "type": "function"
    },
    {
      "inputs": [],
      "name": "getMyEvidenceIds",
      "outputs": [
        {
          "internalType": "uint256[]",
          "name": "",
          "type": "uint256[]"
        }
      ],
      "stateMutability": "view",
      "type": "function",
      "constant": true
    },
    {
      "inputs": [
        {
          "internalType": "address",
          "name": "_user",
          "type": "address"
        }
      ],
      "name": "getAccessibleEvidenceIds",
      "outputs": [
        {
          "internalType": "uint256[]",
          "name": "",
          "type": "uint256[]"
        }
      ],
      "stateMutability": "view",
      "type": "function",
      "constant": true
    },
    {
      "inputs": [
        {
          "internalType": "uint256",
          "name": "_evidenceId",
          "type": "uint256"
        }
      ],
      "name": "getEvidence",
      "outputs": [
        {
          "internalType": "string",
          "name": "cid",
          "type": "string"
        },
        {
          "internalType": "string",
          "name": "originalName",
          "type": "string"
        },
        {
          "internalType": "string",
          "name": "mimeType",
          "type": "string"
        },
        {
          "internalType": "string",
          "name": "name",
          "type": "string"
        },
        {
          "internalType": "string",
          "name": "description",
          "type": "string"
        },
        {
          "internalType": "address",
          "name": "owner",
          "type": "address"
        },
        {
          "internalType": "uint256",
          "name": "timestamp",
          "type": "uint256"
        }
      ],
      "stateMutability": "view",
      "type": "function",
      "constant": true
    },
    {
      "inputs": [],
      "name": "getEvidenceCount",
      "outputs": [
        {
          "internalType": "uint256",
          "name": "",
          "type": "uint256"
        }
      ],
      "stateMutability": "view",
      "type": "function",
      "constant": true
    }
  ],
  "bytecode": "0x608060405234801561001057600080fd5b50600080600073031c7166b87d48e9c99a3b09a6a94aa55a1969af73ffffffffffffffffffffffffffffffffffffffff1673ffffffffffffffffffffffffffffffffffffffff16815260200190815260200160002060006101000a81548160ff021916908360028111156100ad577f4e487b7100000000000000000000000000000000000000000000000000000000600052602160045260246000fd5b02179055506127bc806100c16000396000f3fe608060405234801561001057600080fd5b50600436106100cf5760003560e01c8063743749d71161008c578063b8d4448711610066578063b8d4448714610210578063c956f1431461022e578063d9a5ec1b14610264578063f57ad98914610280576100cf565b8063743749d71461019257806374d5e100146101c2578063a2ed5af0146101f2576100cf565b806327820851146100d4578063486d5e54146101045780635144db4714610120578063630a195b1461013c5780636425bc5a1461015857806365dd152c14610176575b600080fd5b6100ee60048036038101906100e99190611d11565b61029e565b6040516100fb9190612289565b60405180910390f35b61011e60048036038101906101199190611ee5565b6102f3565b005b61013a60048036038101906101359190611d76565b61068b565b005b61015660048036038101906101519190611d3a565b6109f3565b005b610160610c83565b60405161016d9190612267565b60405180910390f35b610190600480360381019061018b9190611ee5565b610e7d565b005b6101ac60048036038101906101a79190611d11565b61107a565b6040516101b99190612267565b60405180910390f35b6101dc60048036038101906101d79190611d11565b611340565b6040516101e99190612289565b60405180910390f35b6101fa611360565b6040516102079190612478565b60405180910390f35b610218611366565b6040516102259190612478565b60405180910390f35b61024860048036038101906102439190611ebc565b611370565b60405161025b97969594939291906122c6565b60405180910390f35b61027e60048036038101906102799190611ee5565b611943565b005b610288611baf565b604051610295919061224c565b60405180910390f35b60008060008373ffffffffffffffffffffffffffffffffffffffff1673ffffffffffffffffffffffffffffffffffffffff16815260200190815260200160002060009054906101000a900460ff169050919050565b81600073ffffffffffffffffffffffffffffffffffffffff166001600083815260200190815260200160002060080160009054906101000a900473ffffffffffffffffffffffffffffffffffffffff1673ffffffffffffffffffffffffffffffffffffffff16141561039a576040517f08c379a000000000000000000000000000000000000000000000000000000000815260040161039190612358565b60405180910390fd5b3373ffffffffffffffffffffffffffffffffffffffff166001600083815260200190815260200160002060080160009054906101000a900473ffffffffffffffffffffffffffffffffffffffff1673ffffffffffffffffffffffffffffffffffffffff161461043e576040517f08c379a0000000000000000000000000000000000000000000000000000000008152600401610435906123b8565b60405180910390fd5b600280811115610477577f4e487b7100000000000000000000000000000000000000000000000000000000600052602160045260246000fd5b6000808473ffffffffffffffffffffffffffffffffffffffff1673ffffffffffffffffffffffffffffffffffffffff16815260200190815260200160002060009054906101000a900460ff1660028111156104fb577f4e487b7100000000000000000000000000000000000000000000000000000000600052602160045260246000fd5b1461053b576040517f08c379a000000000000000000000000000000000000000000000000000000000815260040161053290612398565b60405180910390fd5b6002600084815260200190815260200160002060008373ffffffffffffffffffffffffffffffffffffffff1673ffffffffffffffffffffffffffffffffffffffff16815260200190815260200160002060009054906101000a900460ff16156105d9576040517f08c379a00000000000000000000000000000000000000000000000000000000081526004016105d0906123f8565b60405180910390fd5b60016002600085815260200190815260200160002060008473ffffffffffffffffffffffffffffffffffffffff1673ffffffffffffffffffffffffffffffffffffffff16815260200190815260200160002060006101000a81548160ff0219169083151502179055508173ffffffffffffffffffffffffffffffffffffffff16837f74c722a7077ba48f1c4a1df3ad9df69eda5ffb9518fedba9bad9596305b8b95e60405160405180910390a3505050565b600160028111156106c5577f4e487b7100000000000000000000000000000000000000000000000000000000600052602160045260246000fd5b6000803373ffffffffffffffffffffffffffffffffffffffff1673ffffffffffffffffffffffffffffffffffffffff16815260200190815260200160002060009054906101000a900460ff166002811115610749577f4e487b7100000000000000000000000000000000000000000000000000000000600052602160045260246000fd5b14610789576040517f08c379a000000000000000000000000000000000000000000000000000000000815260040161078090612418565b60405180910390fd5b6003600081548092919061079c9061261e565b9190505550600060035490506040518061012001604052808981526020018881526020018781526020018681526020018581526020014281526020018481526020018381526020013373ffffffffffffffffffffffffffffffffffffffff1681525060016000838152602001908152602001600020600082015181600001908051906020019061082d929190611bc7565b50602082015181600101908051906020019061084a929190611bc7565b506040820151816002019080519060200190610867929190611bc7565b506060820151816003019080519060200190610884929190611bc7565b5060808201518160040190805190602001906108a1929190611bc7565b5060a0820151816005015560c08201518160060190805190602001906108c8929190611bc7565b5060e08201518160070190805190602001906108e5929190611bc7565b506101008201518160080160006101000a81548173ffffffffffffffffffffffffffffffffffffffff021916908373ffffffffffffffffffffffffffffffffffffffff16021790555090505060016002600083815260200190815260200160002060003373ffffffffffffffffffffffffffffffffffffffff1673ffffffffffffffffffffffffffffffffffffffff16815260200190815260200160002060006101000a81548160ff021916908315150217905550803373ffffffffffffffffffffffffffffffffffffffff167fbe289b576db7ac9127f1dd173fa015a07a2b79167f95d05185ef7f01f2a69c43856040516109e191906122a4565b60405180910390a35050505050505050565b60006002811115610a2d577f4e487b7100000000000000000000000000000000000000000000000000000000600052602160045260246000fd5b6000803373ffffffffffffffffffffffffffffffffffffffff1673ffffffffffffffffffffffffffffffffffffffff16815260200190815260200160002060009054906101000a900460ff166002811115610ab1577f4e487b7100000000000000000000000000000000000000000000000000000000600052602160045260246000fd5b14610af1576040517f08c379a0000000000000000000000000000000000000000000000000000000008152600401610ae8906123d8565b60405180910390fd5b60006002811115610b2b577f4e487b7100000000000000000000000000000000000000000000000000000000600052602160045260246000fd5b816002811115610b64577f4e487b7100000000000000000000000000000000000000000000000000000000600052602160045260246000fd5b1415610ba5576040517f08c379a0000000000000000000000000000000000000000000000000000000008152600401610b9c90612378565b60405180910390fd5b806000808473ffffffffffffffffffffffffffffffffffffffff1673ffffffffffffffffffffffffffffffffffffffff16815260200190815260200160002060006101000a81548160ff02191690836002811115610c2c577f4e487b7100000000000000000000000000000000000000000000000000000000600052602160045260246000fd5b02179055508173ffffffffffffffffffffffffffffffffffffffff167f4ac36fa53f167ceb85964be512e01de2a3b8bdb9862f917da079deeeff689b3882604051610c779190612289565b60405180910390a25050565b60606000805b600354811015610d1f573373ffffffffffffffffffffffffffffffffffffffff166001600083815260200190815260200160002060080160009054906101000a900473ffffffffffffffffffffffffffffffffffffffff1673ffffffffffffffffffffffffffffffffffffffff161415610d0c578180610d089061261e565b9250505b8080610d179061261e565b915050610c89565b5060008167ffffffffffffffff811115610d62577f4e487b7100000000000000000000000000000000000000000000000000000000600052604160045260246000fd5b604051908082528060200260200182016040528015610d905781602001602082028036833780820191505090505b5090506000805b600354811015610e73573373ffffffffffffffffffffffffffffffffffffffff166001600083815260200190815260200160002060080160009054906101000a900473ffffffffffffffffffffffffffffffffffffffff1673ffffffffffffffffffffffffffffffffffffffff161415610e605780838381518110610e45577f4e487b7100000000000000000000000000000000000000000000000000000000600052603260045260246000fd5b6020026020010181815250508180610e5c9061261e565b9250505b8080610e6b9061261e565b915050610d97565b5081935050505090565b81600073ffffffffffffffffffffffffffffffffffffffff166001600083815260200190815260200160002060080160009054906101000a900473ffffffffffffffffffffffffffffffffffffffff1673ffffffffffffffffffffffffffffffffffffffff161415610f24576040517f08c379a0000000000000000000000000000000000000000000000000000000008152600401610f1b90612358565b60405180910390fd5b3373ffffffffffffffffffffffffffffffffffffffff166001600083815260200190815260200160002060080160009054906101000a900473ffffffffffffffffffffffffffffffffffffffff1673ffffffffffffffffffffffffffffffffffffffff1614610fc8576040517f08c379a0000000000000000000000000000000000000000000000000000000008152600401610fbf906123b8565b60405180910390fd5b60016002600085815260200190815260200160002060008473ffffffffffffffffffffffffffffffffffffffff1673ffffffffffffffffffffffffffffffffffffffff16815260200190815260200160002060006101000a81548160ff0219169083151502179055508173ffffffffffffffffffffffffffffffffffffffff16837f3c3a9147a1fc73dd51a32f4d10c43d457e8cb826eb6f35cac6349eb965ba82b460405160405180910390a3505050565b60606000805b60035481101561117b576002600082815260200190815260200160002060008573ffffffffffffffffffffffffffffffffffffffff1673ffffffffffffffffffffffffffffffffffffffff16815260200190815260200160002060009054906101000a900460ff168061115457508373ffffffffffffffffffffffffffffffffffffffff166001600083815260200190815260200160002060080160009054906101000a900473ffffffffffffffffffffffffffffffffffffffff1673ffffffffffffffffffffffffffffffffffffffff16145b156111685781806111649061261e565b9250505b80806111739061261e565b915050611080565b5060008167ffffffffffffffff8111156111be577f4e487b7100000000000000000000000000000000000000000000000000000000600052604160045260246000fd5b6040519080825280602002602001820160405280156111ec5781602001602082028036833780820191505090505b5090506000805b600354811015611334576002600082815260200190815260200160002060008773ffffffffffffffffffffffffffffffffffffffff1673ffffffffffffffffffffffffffffffffffffffff16815260200190815260200160002060009054906101000a900460ff16806112c757508573ffffffffffffffffffffffffffffffffffffffff166001600083815260200190815260200160002060080160009054906101000a900473ffffffffffffffffffffffffffffffffffffffff1673ffffffffffffffffffffffffffffffffffffffff16145b156113215780838381518110611306577f4e487b7100000000000000000000000000000000000000000000000000000000600052603260045260246000fd5b602002602001018181525050818061131d9061261e565b9250505b808061132c9061261e565b9150506111f3565b50819350505050919050565b60006020528060005260406000206000915054906101000a900460ff1681565b60035481565b6000600354905090565b60608060608060606000806002600089815260200190815260200160002060003373ffffffffffffffffffffffffffffffffffffffff1673ffffffffffffffffffffffffffffffffffffffff16815260200190815260200160002060009054906101000a900460ff168061144557503373ffffffffffffffffffffffffffffffffffffffff16600160008a815260200190815260200160002060080160009054906101000a900473ffffffffffffffffffffffffffffffffffffffff1673ffffffffffffffffffffffffffffffffffffffff16145b611484576040517f08c379a000000000000000000000000000000000000000000000000000000000815260040161147b90612458565b60405180910390fd5b6000600160008a8152602001908152602001600020604051806101200160405290816000820180546114b5906125ec565b80601f01602080910402602001604051908101604052809291908181526020018280546114e1906125ec565b801561152e5780601f106115035761010080835404028352916020019161152e565b820191906000526020600020905b81548152906001019060200180831161151157829003601f168201915b50505050508152602001600182018054611547906125ec565b80601f0160208091040260200160405190810160405280929190818152602001828054611573906125ec565b80156115c05780601f10611595576101008083540402835291602001916115c0565b820191906000526020600020905b8154815290600101906020018083116115a357829003601f168201915b505050505081526020016002820180546115d9906125ec565b80601f0160208091040260200160405190810160405280929190818152602001828054611605906125ec565b80156116525780601f1061162757610100808354040283529160200191611652565b820191906000526020600020905b81548152906001019060200180831161163557829003601f168201915b5050505050815260200160038201805461166b906125ec565b80601f0160208091040260200160405190810160405280929190818152602001828054611697906125ec565b80156116e45780601f106116b9576101008083540402835291602001916116e4565b820191906000526020600020905b8154815290600101906020018083116116c757829003601f168201915b505050505081526020016004820180546116fd906125ec565b80601f0160208091040260200160405190810160405280929190818152602001828054611729906125ec565b80156117765780601f1061174b57610100808354040283529160200191611776565b820191906000526020600020905b81548152906001019060200180831161175957829003601f168201915b5050505050815260200160058201548152602001600682018054611799906125ec565b80601f01602080910402602001604051908101604052809291908181526020018280546117c5906125ec565b80156118125780601f106117e757610100808354040283529160200191611812565b820191906000526020600020905b8154815290600101906020018083116117f557829003601f168201915b5050505050815260200160078201805461182b906125ec565b80601f0160208091040260200160405190810160405280929190818152602001828054611857906125ec565b80156118a45780601f10611879576101008083540402835291602001916118a4565b820191906000526020600020905b81548152906001019060200180831161188757829003601f168201915b505050505081526020016008820160009054906101000a900473ffffffffffffffffffffffffffffffffffffffff1673ffffffffffffffffffffffffffffffffffffffff1673ffffffffffffffffffffffffffffffffffffffff168152505090508060000151816020015182604001518360c001518460e001518561010001518660a00151975097509750975097509750975050919395979092949650565b81600073ffffffffffffffffffffffffffffffffffffffff166001600083815260200190815260200160002060080160009054906101000a900473ffffffffffffffffffffffffffffffffffffffff1673ffffffffffffffffffffffffffffffffffffffff1614156119ea576040517f08c379a00000000000000000000000000000000000000000000000000000000081526004016119e190612358565b60405180910390fd5b3373ffffffffffffffffffffffffffffffffffffffff166001600083815260200190815260200160002060080160009054906101000a900473ffffffffffffffffffffffffffffffffffffffff1673ffffffffffffffffffffffffffffffffffffffff1614611a8e576040517f08c379a0000000000000000000000000000000000000000000000000000000008152600401611a85906123b8565b60405180910390fd5b3373ffffffffffffffffffffffffffffffffffffffff168273ffffffffffffffffffffffffffffffffffffffff161415611afd576040517f08c379a0000000000000000000000000000000000000000000000000000000008152600401611af490612438565b60405180910390fd5b60006002600085815260200190815260200160002060008473ffffffffffffffffffffffffffffffffffffffff1673ffffffffffffffffffffffffffffffffffffffff16815260200190815260200160002060006101000a81548160ff0219169083151502179055508173ffffffffffffffffffffffffffffffffffffffff16837f125883b94692baebecad9f111ed97ffa626523bbbadc6b0ef85ee1b56b9e52d560405160405180910390a3505050565b73031c7166b87d48e9c99a3b09a6a94aa55a1969af81565b828054611bd3906125ec565b90600052602060002090601f016020900481019282611bf55760008555611c3c565b82601f10611c0e57805160ff1916838001178555611c3c565b82800160010185558215611c3c579182015b82811115611c3b578251825591602001919060010190611c20565b5b509050611c499190611c4d565b5090565b5b80821115611c66576000816000905550600101611c4e565b5090565b6000611c7d611c78846124c4565b612493565b905082815260208101848484011115611c9557600080fd5b611ca08482856125aa565b509392505050565b600081359050611cb781612748565b92915050565b600081359050611ccc8161275f565b92915050565b600082601f830112611ce357600080fd5b8135611cf3848260208601611c6a565b91505092915050565b600081359050611d0b8161276f565b92915050565b600060208284031215611d2357600080fd5b6000611d3184828501611ca8565b91505092915050565b60008060408385031215611d4d57600080fd5b6000611d5b85828601611ca8565b9250506020611d6c85828601611cbd565b9150509250929050565b600080600080600080600060e0888a031215611d9157600080fd5b600088013567ffffffffffffffff811115611dab57600080fd5b611db78a828b01611cd2565b975050602088013567ffffffffffffffff811115611dd457600080fd5b611de08a828b01611cd2565b965050604088013567ffffffffffffffff811115611dfd57600080fd5b611e098a828b01611cd2565b955050606088013567ffffffffffffffff811115611e2657600080fd5b611e328a828b01611cd2565b945050608088013567ffffffffffffffff811115611e4f57600080fd5b611e5b8a828b01611cd2565b93505060a088013567ffffffffffffffff811115611e7857600080fd5b611e848a828b01611cd2565b92505060c088013567ffffffffffffffff811115611ea157600080fd5b611ead8a828b01611cd2565b91505092959891949750929550565b600060208284031215611ece57600080fd5b6000611edc84828501611cfc565b91505092915050565b60008060408385031215611ef857600080fd5b6000611f0685828601611cfc565b9250506020611f1785828601611ca8565b9150509250929050565b6000611f2d838361222e565b60208301905092915050565b611f4281612549565b82525050565b6000611f5382612504565b611f5d8185612527565b9350611f68836124f4565b8060005b83811015611f99578151611f808882611f21565b9750611f8b8361251a565b925050600181019050611f6c565b5085935050505092915050565b611faf81612598565b82525050565b6000611fc08261250f565b611fca8185612538565b9350611fda8185602086016125b9565b611fe381612723565b840191505092915050565b6000611ffb601783612538565b91507f45766964656e636520646f6573206e6f742065786973740000000000000000006000830152602082019050919050565b600061203b601883612538565b91507f43616e6e6f742061737369676e2041646d696e20726f6c6500000000000000006000830152602082019050919050565b600061207b601783612538565b91507f55736572206973206e6f7420612076616c696461746f720000000000000000006000830152602082019050919050565b60006120bb601683612538565b91507f4e6f74207468652065766964656e6365206f776e6572000000000000000000006000830152602082019050919050565b60006120fb600c83612538565b91507f4e6f7420616e2061646d696e00000000000000000000000000000000000000006000830152602082019050919050565b600061213b601a83612538565b91507f56616c696461746f7220616c72656164792061737369676e65640000000000006000830152602082019050919050565b600061217b601383612538565b91507f4e6f7420616e20496e76657374696761746f72000000000000000000000000006000830152602082019050919050565b60006121bb601883612538565b91507f43616e6e6f74207265766f6b65206f776e2061636365737300000000000000006000830152602082019050919050565b60006121fb600d83612538565b91507f4163636573732064656e696564000000000000000000000000000000000000006000830152602082019050919050565b6122378161258e565b82525050565b6122468161258e565b82525050565b60006020820190506122616000830184611f39565b92915050565b600060208201905081810360008301526122818184611f48565b905092915050565b600060208201905061229e6000830184611fa6565b92915050565b600060208201905081810360008301526122be8184611fb5565b905092915050565b600060e08201905081810360008301526122e0818a611fb5565b905081810360208301526122f48189611fb5565b905081810360408301526123088188611fb5565b9050818103606083015261231c8187611fb5565b905081810360808301526123308186611fb5565b905061233f60a0830185611f39565b61234c60c083018461223d565b98975050505050505050565b6000602082019050818103600083015261237181611fee565b9050919050565b600060208201905081810360008301526123918161202e565b9050919050565b600060208201905081810360008301526123b18161206e565b9050919050565b600060208201905081810360008301526123d1816120ae565b9050919050565b600060208201905081810360008301526123f1816120ee565b9050919050565b600060208201905081810360008301526124118161212e565b9050919050565b600060208201905081810360008301526124318161216e565b9050919050565b60006020820190508181036000830152612451816121ae565b9050919050565b60006020820190508181036000830152612471816121ee565b9050919050565b600060208201905061248d600083018461223d565b92915050565b6000604051905081810181811067ffffffffffffffff821117156124ba576124b96126f4565b5b8060405250919050565b600067ffffffffffffffff8211156124df576124de6126f4565b5b601f19601f8301169050602081019050919050565b6000819050602082019050919050565b600081519050919050565b600081519050919050565b6000602082019050919050565b600082825260208201905092915050565b600082825260208201905092915050565b60006125548261256e565b9050919050565b600081905061256982612734565b919050565b600073ffffffffffffffffffffffffffffffffffffffff82169050919050565b6000819050919050565b60006125a38261255b565b9050919050565b82818337600083830152505050565b60005b838110156125d75780820151818401526020810190506125bc565b838111156125e6576000848401525b50505050565b6000600282049050600182168061260457607f821691505b60208210811415612618576126176126c5565b5b50919050565b60006126298261258e565b91507fffffffffffffffffffffffffffffffffffffffffffffffffffffffffffffffff82141561265c5761265b612667565b5b600182019050919050565b7f4e487b7100000000000000000000000000000000000000000000000000000000600052601160045260246000fd5b7f4e487b7100000000000000000000000000000000000000000000000000000000600052602160045260246000fd5b7f4e487b7100000000000000000000000000000000000000000000000000000000600052602260045260246000fd5b7f4e487b7100000000000000000000000000000000000000000000000000000000600052604160045260246000fd5b6000601f19601f8301169050919050565b6003811061274557612744612696565b5b50565b61275181612549565b811461275c57600080fd5b50565b6003811061276c57600080fd5b50565b6127788161258e565b811461278357600080fd5b5056fea2646970667358221220c60b49131264aa45bec694cd677d9b0276f62058978184591dc2393a7b3353d564736f6c63430008000033",
  "immutableReferences": {},
  "source": "// SPDX-License-Identifier: MIT\npragma solidity ^0.8.0;\n\ncontract Evidence {\n    enum Role { Admin, Investigator, Validator }\n\n    struct EvidenceRecord {\n        string cid;\n        string originalName;\n        string mimeType;\n        string hash; \n        string encryptedPassword;\n        uint256 timestamp;\n        string name; \n        string description; \n        address owner;\n    }\n\n    address public constant ADMIN_ADDRESS = 0x031c7166b87d48E9c99a3B09A6A94Aa55A1969Af;\n\n    mapping(address => Role) public userRoles;\n    mapping(uint256 => EvidenceRecord) private evidenceRecords;\n    mapping(uint256 => mapping(address => bool)) private evidenceAccess;\n    uint256 public evidenceCount;\n\n    event EvidenceAdded(address indexed owner, uint256 indexed evidenceId, string name);\n    event RoleAssigned(address indexed user, Role role);\n    event ValidatorAssigned(uint256 indexed evidenceId, address indexed validator);\n    event AccessGranted(uint256 indexed evidenceId, address indexed user);\n    event AccessRevoked(uint256 indexed evidenceId, address indexed user);\n\n    modifier onlyAdmin() {\n        require(userRoles[msg.sender] == Role.Admin , \"Not an admin\");\n        _;\n    }\n\n    modifier onlyInvestigator() {\n        require(userRoles[msg.sender] == Role.Investigator, \"Not an Investigator\");\n        _;\n    }\n\n    modifier onlyValidator() {\n        require(userRoles[msg.sender] == Role.Validator, \"Not a validator\");\n        _;\n    }\n\n    modifier onlyOwner(uint256 evidenceId) {\n        require(evidenceRecords[evidenceId].owner != address(0), \"Evidence does not exist\");\n        require(evidenceRecords[evidenceId].owner == msg.sender, \"Not the evidence owner\");\n        _;\n    }\n\n    \n    constructor() {\n        userRoles[ADMIN_ADDRESS] = Role.Admin;\n    }\n\n\n    function assignRole(address _user, Role _role) public onlyAdmin {\n        require(_role != Role.Admin, \"Cannot assign Admin role\");\n        userRoles[_user] = _role;\n        emit RoleAssigned(_user, _role);\n    }\n\n    function getUserRole(address _user) public view returns (Role) {\n        return userRoles[_user];\n    }\n\n    function addEvidence(\n        string memory _cid,\n        string memory _originalName,\n        string memory _mimeType,\n        string memory _hash,\n        string memory _encryptedPassword,\n        string memory _name,\n        string memory _description\n    ) public onlyInvestigator {\n        evidenceCount++;\n        uint256 evidenceId = evidenceCount;\n        evidenceRecords[evidenceId] = EvidenceRecord({\n            cid: _cid,\n            originalName: _originalName,\n            mimeType: _mimeType,\n            hash: _hash,\n            encryptedPassword: _encryptedPassword,\n            timestamp: block.timestamp,\n            name: _name,\n            description: _description,\n            owner: msg.sender\n        });\n\n        evidenceAccess[evidenceId][msg.sender] = true;\n        emit EvidenceAdded(msg.sender, evidenceId, _name);\n    }\n\n    function assignValidator(uint256 _evidenceId, address _validator) public onlyOwner(_evidenceId) {\n        require(userRoles[_validator] == Role.Validator, \"User is not a validator\");\n\n        require(!evidenceAccess[_evidenceId][_validator], \"Validator already assigned\");\n\n        evidenceAccess[_evidenceId][_validator] = true;\n        emit ValidatorAssigned(_evidenceId, _validator);\n    }\n\n    function grantAccess(uint256 _evidenceId, address _user) public onlyOwner(_evidenceId) {\n        evidenceAccess[_evidenceId][_user] = true;\n        emit AccessGranted(_evidenceId, _user);\n    }\n\n    function revokeAccess(uint256 _evidenceId, address _user) public onlyOwner(_evidenceId) {\n        require(_user != msg.sender, \"Cannot revoke own access\");\n        evidenceAccess[_evidenceId][_user] = false;\n        emit AccessRevoked(_evidenceId, _user);\n    }\n\n    function getMyEvidenceIds() public view returns (uint256[] memory) {\n        uint256 count = 0;\n\n        for (uint256 i = 0; i < evidenceCount; i++) {\n            if (evidenceRecords[i].owner == msg.sender) {\n                count++;\n            }\n        }\n\n        uint256[] memory result = new uint256[](count);\n        uint256 index = 0;\n\n        for (uint256 i = 0; i < evidenceCount; i++) {\n            if (evidenceRecords[i].owner == msg.sender) {\n                result[index] = i;\n                index++;\n            }\n        }\n\n        return result;\n    }\n\n\n    function getAccessibleEvidenceIds(address _user) public view returns (uint256[] memory) {\n        uint256 count = 0;\n\n        // First pass: count how many evidences the user can access\n        for (uint256 i = 0; i < evidenceCount; i++) {\n            if (evidenceAccess[i][_user] || evidenceRecords[i].owner == _user) {\n                count++;\n            }\n        }\n\n        // Second pass: collect the IDs\n        uint256[] memory result = new uint256[](count);\n        uint256 index = 0;\n\n        for (uint256 i = 0; i < evidenceCount; i++) {\n            if (evidenceAccess[i][_user] || evidenceRecords[i].owner == _user) {\n                result[index] = i;\n                index++;\n            }\n        }\n\n        return result;\n    }\n\n\n    function getEvidence(uint256 _evidenceId) public view returns (\n        string memory cid,\n        string memory originalName,\n        string memory mimeType,\n        string memory name,\n        string memory description,\n        address owner,\n        uint256 timestamp\n    ) {\n        require(evidenceAccess[_evidenceId][msg.sender] || evidenceRecords[_evidenceId].owner == msg.sender, \"Access denied\");\n\n        EvidenceRecord memory evidence = evidenceRecords[_evidenceId];\n        return (\n            evidence.cid,\n            evidence.originalName,\n            evidence.mimeType,\n            evidence.name,\n            evidence.description,\n            evidence.owner,\n            evidence.timestamp\n        );\n    }\n\n    function getEvidenceCount() public view returns (uint256) {\n        return evidenceCount;\n    }\n}\n",
  "sourcePath": "/Users/harshalpatil/Desktop/Private_Workspace/Distributed-EMS-Backend/evidence-contract/contracts/Evidence.sol",
  "compiler": {
    "name": "solc",
    "version": "0.8.0+commit.c7dfd78e.Emscripten.clang"
  },
  "schemaVersion": "3.4.16",
  "updatedAt": "2025-03-22T13:59:02.855Z",
  "networkType": "ethereum",
  "devdoc": {
    "kind": "dev",
    "methods": {},
    "version": 1
  },
  "userdoc": {
    "kind": "user",
    "methods": {},
    "version": 1
  }
}