{
  "contractName": "Evidence",
  "abi": [
    {
      "inputs": [],
      "stateMutability": "nonpayable",
      "type": "constructor"
    },
    {
      "anonymous": false,
      "inputs": [
        {
          "indexed": true,
          "internalType": "uint256",
          "name": "evidenceId",
          "type": "uint256"
        },
        {
          "indexed": true,
          "internalType": "address",
          "name": "user",
          "type": "address"
        }
      ],
      "name": "AccessGranted",
      "type": "event"
    },
    {
      "anonymous": false,
      "inputs": [
        {
          "indexed": true,
          "internalType": "uint256",
          "name": "evidenceId",
          "type": "uint256"
        },
        {
          "indexed": true,
          "internalType": "address",
          "name": "user",
          "type": "address"
        }
      ],
      "name": "AccessRevoked",
      "type": "event"
    },
    {
      "anonymous": false,
      "inputs": [
        {
          "indexed": true,
          "internalType": "address",
          "name": "owner",
          "type": "address"
        },
        {
          "indexed": true,
          "internalType": "uint256",
          "name": "evidenceId",
          "type": "uint256"
        },
        {
          "indexed": false,
          "internalType": "string",
          "name": "name",
          "type": "string"
        }
      ],
      "name": "EvidenceAdded",
      "type": "event"
    },
    {
      "anonymous": false,
      "inputs": [
        {
          "indexed": true,
          "internalType": "address",
          "name": "user",
          "type": "address"
        },
        {
          "indexed": false,
          "internalType": "enum Evidence.Role",
          "name": "role",
          "type": "uint8"
        }
      ],
      "name": "RoleAssigned",
      "type": "event"
    },
    {
      "anonymous": false,
      "inputs": [
        {
          "indexed": true,
          "internalType": "uint256",
          "name": "evidenceId",
          "type": "uint256"
        },
        {
          "indexed": true,
          "internalType": "address",
          "name": "validator",
          "type": "address"
        }
      ],
      "name": "ValidatorAssigned",
      "type": "event"
    },
    {
      "inputs": [],
      "name": "ADMIN_ADDRESS",
      "outputs": [
        {
          "internalType": "address",
          "name": "",
          "type": "address"
        }
      ],
      "stateMutability": "view",
      "type": "function",
      "constant": true
    },
    {
      "inputs": [],
      "name": "evidenceCount",
      "outputs": [
        {
          "internalType": "uint256",
          "name": "",
          "type": "uint256"
        }
      ],
      "stateMutability": "view",
      "type": "function",
      "constant": true
    },
    {
      "inputs": [
        {
          "internalType": "address",
          "name": "",
          "type": "address"
        }
      ],
      "name": "userRoles",
      "outputs": [
        {
          "internalType": "enum Evidence.Role",
          "name": "",
          "type": "uint8"
        }
      ],
      "stateMutability": "view",
      "type": "function",
      "constant": true
    },
    {
      "inputs": [
        {
          "internalType": "address",
          "name": "_user",
          "type": "address"
        },
        {
          "internalType": "enum Evidence.Role",
          "name": "_role",
          "type": "uint8"
        }
      ],
      "name": "assignRole",
      "outputs": [],
      "stateMutability": "nonpayable",
      "type": "function"
    },
    {
      "inputs": [
        {
          "internalType": "address",
          "name": "_user",
          "type": "address"
        }
      ],
      "name": "getUserRole",
      "outputs": [
        {
          "internalType": "enum Evidence.Role",
          "name": "",
          "type": "uint8"
        }
      ],
      "stateMutability": "view",
      "type": "function",
      "constant": true
    },
    {
      "inputs": [
        {
          "internalType": "string",
          "name": "_cid",
          "type": "string"
        },
        {
          "internalType": "string",
          "name": "_originalName",
          "type": "string"
        },
        {
          "internalType": "string",
          "name": "_mimeType",
          "type": "string"
        },
        {
          "internalType": "string",
          "name": "_hash",
          "type": "string"
        },
        {
          "internalType": "string",
          "name": "_encryptedPassword",
          "type": "string"
        },
        {
          "internalType": "string",
          "name": "_name",
          "type": "string"
        },
        {
          "internalType": "string",
          "name": "_description",
          "type": "string"
        }
      ],
      "name": "addEvidence",
      "outputs": [],
      "stateMutability": "nonpayable",
      "type": "function"
    },
    {
      "inputs": [
        {
          "internalType": "uint256",
          "name": "_evidenceId",
          "type": "uint256"
        },
        {
          "internalType": "address",
          "name": "_validator",
          "type": "address"
        }
      ],
      "name": "assignValidator",
      "outputs": [],
      "stateMutability": "nonpayable",
      "type": "function"
    },
    {
      "inputs": [
        {
          "internalType": "uint256",
          "name": "_evidenceId",
          "type": "uint256"
        },
        {
          "internalType": "address",
          "name": "_user",
          "type": "address"
        }
      ],
      "name": "grantAccess",
      "outputs": [],
      "stateMutability": "nonpayable",
      "type": "function"
    },
    {
      "inputs": [
        {
          "internalType": "uint256",
          "name": "_evidenceId",
          "type": "uint256"
        },
        {
          "internalType": "address",
          "name": "_user",
          "type": "address"
        }
      ],
      "name": "revokeAccess",
      "outputs": [],
      "stateMutability": "nonpayable",
      "type": "function"
    },
    {
      "inputs": [],
      "name": "getMyEvidenceIds",
      "outputs": [
        {
          "internalType": "uint256[]",
          "name": "",
          "type": "uint256[]"
        }
      ],
      "stateMutability": "view",
      "type": "function",
      "constant": true
    },
    {
      "inputs": [
        {
          "internalType": "address",
          "name": "_user",
          "type": "address"
        }
      ],
      "name": "getAccessibleEvidenceIds",
      "outputs": [
        {
          "internalType": "uint256[]",
          "name": "",
          "type": "uint256[]"
        }
      ],
      "stateMutability": "view",
      "type": "function",
      "constant": true
    },
    {
      "inputs": [
        {
          "internalType": "uint256",
          "name": "_evidenceId",
          "type": "uint256"
        }
      ],
      "name": "getEvidence",
      "outputs": [
        {
          "internalType": "string",
          "name": "cid",
          "type": "string"
        },
        {
          "internalType": "string",
          "name": "originalName",
          "type": "string"
        },
        {
          "internalType": "string",
          "name": "mimeType",
          "type": "string"
        },
        {
          "internalType": "string",
          "name": "name",
          "type": "string"
        },
        {
          "internalType": "string",
          "name": "description",
          "type": "string"
        },
        {
          "internalType": "address",
          "name": "owner",
          "type": "address"
        },
        {
          "internalType": "uint256",
          "name": "timestamp",
          "type": "uint256"
        }
      ],
      "stateMutability": "view",
      "type": "function",
      "constant": true
    },
    {
      "inputs": [],
      "name": "getEvidenceCount",
      "outputs": [
        {
          "internalType": "uint256",
          "name": "",
          "type": "uint256"
        }
      ],
      "stateMutability": "view",
      "type": "function",
      "constant": true
    }
  ],
  "bytecode": "0x608060405234801561001057600080fd5b50600080600073031c7166b87d48e9c99a3b09a6a94aa55a1969af73ffffffffffffffffffffffffffffffffffffffff1673ffffffffffffffffffffffffffffffffffffffff16815260200190815260200160002060006101000a81548160ff021916908360028111156100ad577f4e487b7100000000000000000000000000000000000000000000000000000000600052602160045260246000fd5b0217905550611c13806100c16000396000f3fe608060405234801561001057600080fd5b50600436106100cf5760003560e01c8063743749d71161008c578063b8d4448711610066578063b8d4448714610210578063c956f1431461022e578063d9a5ec1b14610264578063f57ad98914610280576100cf565b8063743749d71461019257806374d5e100146101c2578063a2ed5af0146101f2576100cf565b806327820851146100d4578063486d5e54146101045780635144db4714610120578063630a195b1461013c5780636425bc5a1461015857806365dd152c14610176575b600080fd5b6100ee60048036038101906100e99190611468565b61029e565b6040516100fb91906117e0565b60405180910390f35b61011e6004803603810190610119919061163c565b6102f3565b005b61013a600480360381019061013591906114cd565b6103a4565b005b61015660048036038101906101519190611491565b61070c565b005b6101606107ea565b60405161016d91906117be565b60405180910390f35b610190600480360381019061018b919061163c565b6109e4565b005b6101ac60048036038101906101a79190611468565b610a95565b6040516101b991906117be565b60405180910390f35b6101dc60048036038101906101d79190611468565b610d5b565b6040516101e991906117e0565b60405180910390f35b6101fa610d7b565b60405161020791906118cf565b60405180910390f35b610218610d81565b60405161022591906118cf565b60405180910390f35b61024860048036038101906102439190611613565b610d8b565b60405161025b979695949392919061181d565b60405180910390f35b61027e6004803603810190610279919061163c565b611255565b005b610288611306565b60405161029591906117a3565b60405180910390f35b60008060008373ffffffffffffffffffffffffffffffffffffffff1673ffffffffffffffffffffffffffffffffffffffff16815260200190815260200160002060009054906101000a900460ff169050919050565b60016002600084815260200190815260200160002060008373ffffffffffffffffffffffffffffffffffffffff1673ffffffffffffffffffffffffffffffffffffffff16815260200190815260200160002060006101000a81548160ff0219169083151502179055508073ffffffffffffffffffffffffffffffffffffffff16827f74c722a7077ba48f1c4a1df3ad9df69eda5ffb9518fedba9bad9596305b8b95e60405160405180910390a35050565b600160028111156103de577f4e487b7100000000000000000000000000000000000000000000000000000000600052602160045260246000fd5b6000803373ffffffffffffffffffffffffffffffffffffffff1673ffffffffffffffffffffffffffffffffffffffff16815260200190815260200160002060009054906101000a900460ff166002811115610462577f4e487b7100000000000000000000000000000000000000000000000000000000600052602160045260246000fd5b146104a2576040517f08c379a0000000000000000000000000000000000000000000000000000000008152600401610499906118af565b60405180910390fd5b600360008154809291906104b590611a75565b9190505550600060035490506040518061012001604052808981526020018881526020018781526020018681526020018581526020014281526020018481526020018381526020013373ffffffffffffffffffffffffffffffffffffffff1681525060016000838152602001908152602001600020600082015181600001908051906020019061054692919061131e565b50602082015181600101908051906020019061056392919061131e565b50604082015181600201908051906020019061058092919061131e565b50606082015181600301908051906020019061059d92919061131e565b5060808201518160040190805190602001906105ba92919061131e565b5060a0820151816005015560c08201518160060190805190602001906105e192919061131e565b5060e08201518160070190805190602001906105fe92919061131e565b506101008201518160080160006101000a81548173ffffffffffffffffffffffffffffffffffffffff021916908373ffffffffffffffffffffffffffffffffffffffff16021790555090505060016002600083815260200190815260200160002060003373ffffffffffffffffffffffffffffffffffffffff1673ffffffffffffffffffffffffffffffffffffffff16815260200190815260200160002060006101000a81548160ff021916908315150217905550803373ffffffffffffffffffffffffffffffffffffffff167fbe289b576db7ac9127f1dd173fa015a07a2b79167f95d05185ef7f01f2a69c43856040516106fa91906117fb565b60405180910390a35050505050505050565b806000808473ffffffffffffffffffffffffffffffffffffffff1673ffffffffffffffffffffffffffffffffffffffff16815260200190815260200160002060006101000a81548160ff02191690836002811115610793577f4e487b7100000000000000000000000000000000000000000000000000000000600052602160045260246000fd5b02179055508173ffffffffffffffffffffffffffffffffffffffff167f4ac36fa53f167ceb85964be512e01de2a3b8bdb9862f917da079deeeff689b38826040516107de91906117e0565b60405180910390a25050565b60606000805b600354811015610886573373ffffffffffffffffffffffffffffffffffffffff166001600083815260200190815260200160002060080160009054906101000a900473ffffffffffffffffffffffffffffffffffffffff1673ffffffffffffffffffffffffffffffffffffffff16141561087357818061086f90611a75565b9250505b808061087e90611a75565b9150506107f0565b5060008167ffffffffffffffff8111156108c9577f4e487b7100000000000000000000000000000000000000000000000000000000600052604160045260246000fd5b6040519080825280602002602001820160405280156108f75781602001602082028036833780820191505090505b5090506000805b6003548110156109da573373ffffffffffffffffffffffffffffffffffffffff166001600083815260200190815260200160002060080160009054906101000a900473ffffffffffffffffffffffffffffffffffffffff1673ffffffffffffffffffffffffffffffffffffffff1614156109c757808383815181106109ac577f4e487b7100000000000000000000000000000000000000000000000000000000600052603260045260246000fd5b60200260200101818152505081806109c390611a75565b9250505b80806109d290611a75565b9150506108fe565b5081935050505090565b60016002600084815260200190815260200160002060008373ffffffffffffffffffffffffffffffffffffffff1673ffffffffffffffffffffffffffffffffffffffff16815260200190815260200160002060006101000a81548160ff0219169083151502179055508073ffffffffffffffffffffffffffffffffffffffff16827f3c3a9147a1fc73dd51a32f4d10c43d457e8cb826eb6f35cac6349eb965ba82b460405160405180910390a35050565b60606000805b600354811015610b96576002600082815260200190815260200160002060008573ffffffffffffffffffffffffffffffffffffffff1673ffffffffffffffffffffffffffffffffffffffff16815260200190815260200160002060009054906101000a900460ff1680610b6f57508373ffffffffffffffffffffffffffffffffffffffff166001600083815260200190815260200160002060080160009054906101000a900473ffffffffffffffffffffffffffffffffffffffff1673ffffffffffffffffffffffffffffffffffffffff16145b15610b83578180610b7f90611a75565b9250505b8080610b8e90611a75565b915050610a9b565b5060008167ffffffffffffffff811115610bd9577f4e487b7100000000000000000000000000000000000000000000000000000000600052604160045260246000fd5b604051908082528060200260200182016040528015610c075781602001602082028036833780820191505090505b5090506000805b600354811015610d4f576002600082815260200190815260200160002060008773ffffffffffffffffffffffffffffffffffffffff1673ffffffffffffffffffffffffffffffffffffffff16815260200190815260200160002060009054906101000a900460ff1680610ce257508573ffffffffffffffffffffffffffffffffffffffff166001600083815260200190815260200160002060080160009054906101000a900473ffffffffffffffffffffffffffffffffffffffff1673ffffffffffffffffffffffffffffffffffffffff16145b15610d3c5780838381518110610d21577f4e487b7100000000000000000000000000000000000000000000000000000000600052603260045260246000fd5b6020026020010181815250508180610d3890611a75565b9250505b8080610d4790611a75565b915050610c0e565b50819350505050919050565b60006020528060005260406000206000915054906101000a900460ff1681565b60035481565b6000600354905090565b60608060608060606000806000600160008a815260200190815260200160002060405180610120016040529081600082018054610dc790611a43565b80601f0160208091040260200160405190810160405280929190818152602001828054610df390611a43565b8015610e405780601f10610e1557610100808354040283529160200191610e40565b820191906000526020600020905b815481529060010190602001808311610e2357829003601f168201915b50505050508152602001600182018054610e5990611a43565b80601f0160208091040260200160405190810160405280929190818152602001828054610e8590611a43565b8015610ed25780601f10610ea757610100808354040283529160200191610ed2565b820191906000526020600020905b815481529060010190602001808311610eb557829003601f168201915b50505050508152602001600282018054610eeb90611a43565b80601f0160208091040260200160405190810160405280929190818152602001828054610f1790611a43565b8015610f645780601f10610f3957610100808354040283529160200191610f64565b820191906000526020600020905b815481529060010190602001808311610f4757829003601f168201915b50505050508152602001600382018054610f7d90611a43565b80601f0160208091040260200160405190810160405280929190818152602001828054610fa990611a43565b8015610ff65780601f10610fcb57610100808354040283529160200191610ff6565b820191906000526020600020905b815481529060010190602001808311610fd957829003601f168201915b5050505050815260200160048201805461100f90611a43565b80601f016020809104026020016040519081016040528092919081815260200182805461103b90611a43565b80156110885780601f1061105d57610100808354040283529160200191611088565b820191906000526020600020905b81548152906001019060200180831161106b57829003601f168201915b50505050508152602001600582015481526020016006820180546110ab90611a43565b80601f01602080910402602001604051908101604052809291908181526020018280546110d790611a43565b80156111245780601f106110f957610100808354040283529160200191611124565b820191906000526020600020905b81548152906001019060200180831161110757829003601f168201915b5050505050815260200160078201805461113d90611a43565b80601f016020809104026020016040519081016040528092919081815260200182805461116990611a43565b80156111b65780601f1061118b576101008083540402835291602001916111b6565b820191906000526020600020905b81548152906001019060200180831161119957829003601f168201915b505050505081526020016008820160009054906101000a900473ffffffffffffffffffffffffffffffffffffffff1673ffffffffffffffffffffffffffffffffffffffff1673ffffffffffffffffffffffffffffffffffffffff168152505090508060000151816020015182604001518360c001518460e001518561010001518660a00151975097509750975097509750975050919395979092949650565b60006002600084815260200190815260200160002060008373ffffffffffffffffffffffffffffffffffffffff1673ffffffffffffffffffffffffffffffffffffffff16815260200190815260200160002060006101000a81548160ff0219169083151502179055508073ffffffffffffffffffffffffffffffffffffffff16827f125883b94692baebecad9f111ed97ffa626523bbbadc6b0ef85ee1b56b9e52d560405160405180910390a35050565b73031c7166b87d48e9c99a3b09a6a94aa55a1969af81565b82805461132a90611a43565b90600052602060002090601f01602090048101928261134c5760008555611393565b82601f1061136557805160ff1916838001178555611393565b82800160010185558215611393579182015b82811115611392578251825591602001919060010190611377565b5b5090506113a091906113a4565b5090565b5b808211156113bd5760008160009055506001016113a5565b5090565b60006113d46113cf8461191b565b6118ea565b9050828152602081018484840111156113ec57600080fd5b6113f7848285611a01565b509392505050565b60008135905061140e81611b9f565b92915050565b60008135905061142381611bb6565b92915050565b600082601f83011261143a57600080fd5b813561144a8482602086016113c1565b91505092915050565b60008135905061146281611bc6565b92915050565b60006020828403121561147a57600080fd5b6000611488848285016113ff565b91505092915050565b600080604083850312156114a457600080fd5b60006114b2858286016113ff565b92505060206114c385828601611414565b9150509250929050565b600080600080600080600060e0888a0312156114e857600080fd5b600088013567ffffffffffffffff81111561150257600080fd5b61150e8a828b01611429565b975050602088013567ffffffffffffffff81111561152b57600080fd5b6115378a828b01611429565b965050604088013567ffffffffffffffff81111561155457600080fd5b6115608a828b01611429565b955050606088013567ffffffffffffffff81111561157d57600080fd5b6115898a828b01611429565b945050608088013567ffffffffffffffff8111156115a657600080fd5b6115b28a828b01611429565b93505060a088013567ffffffffffffffff8111156115cf57600080fd5b6115db8a828b01611429565b92505060c088013567ffffffffffffffff8111156115f857600080fd5b6116048a828b01611429565b91505092959891949750929550565b60006020828403121561162557600080fd5b600061163384828501611453565b91505092915050565b6000806040838503121561164f57600080fd5b600061165d85828601611453565b925050602061166e858286016113ff565b9150509250929050565b60006116848383611785565b60208301905092915050565b611699816119a0565b82525050565b60006116aa8261195b565b6116b4818561197e565b93506116bf8361194b565b8060005b838110156116f05781516116d78882611678565b97506116e283611971565b9250506001810190506116c3565b5085935050505092915050565b611706816119ef565b82525050565b600061171782611966565b611721818561198f565b9350611731818560208601611a10565b61173a81611b7a565b840191505092915050565b600061175260138361198f565b91507f4e6f7420616e20496e76657374696761746f72000000000000000000000000006000830152602082019050919050565b61178e816119e5565b82525050565b61179d816119e5565b82525050565b60006020820190506117b86000830184611690565b92915050565b600060208201905081810360008301526117d8818461169f565b905092915050565b60006020820190506117f560008301846116fd565b92915050565b60006020820190508181036000830152611815818461170c565b905092915050565b600060e0820190508181036000830152611837818a61170c565b9050818103602083015261184b818961170c565b9050818103604083015261185f818861170c565b90508181036060830152611873818761170c565b90508181036080830152611887818661170c565b905061189660a0830185611690565b6118a360c0830184611794565b98975050505050505050565b600060208201905081810360008301526118c881611745565b9050919050565b60006020820190506118e46000830184611794565b92915050565b6000604051905081810181811067ffffffffffffffff8211171561191157611910611b4b565b5b8060405250919050565b600067ffffffffffffffff82111561193657611935611b4b565b5b601f19601f8301169050602081019050919050565b6000819050602082019050919050565b600081519050919050565b600081519050919050565b6000602082019050919050565b600082825260208201905092915050565b600082825260208201905092915050565b60006119ab826119c5565b9050919050565b60008190506119c082611b8b565b919050565b600073ffffffffffffffffffffffffffffffffffffffff82169050919050565b6000819050919050565b60006119fa826119b2565b9050919050565b82818337600083830152505050565b60005b83811015611a2e578082015181840152602081019050611a13565b83811115611a3d576000848401525b50505050565b60006002820490506001821680611a5b57607f821691505b60208210811415611a6f57611a6e611b1c565b5b50919050565b6000611a80826119e5565b91507fffffffffffffffffffffffffffffffffffffffffffffffffffffffffffffffff821415611ab357611ab2611abe565b5b600182019050919050565b7f4e487b7100000000000000000000000000000000000000000000000000000000600052601160045260246000fd5b7f4e487b7100000000000000000000000000000000000000000000000000000000600052602160045260246000fd5b7f4e487b7100000000000000000000000000000000000000000000000000000000600052602260045260246000fd5b7f4e487b7100000000000000000000000000000000000000000000000000000000600052604160045260246000fd5b6000601f19601f8301169050919050565b60038110611b9c57611b9b611aed565b5b50565b611ba8816119a0565b8114611bb357600080fd5b50565b60038110611bc357600080fd5b50565b611bcf816119e5565b8114611bda57600080fd5b5056fea26469706673582212205efe9d2c26c2d3c882a7b9808c6eb51aa6cab989a11eedf1014f86423c86aade64736f6c63430008000033",
  "immutableReferences": {},
  "source": "// SPDX-License-Identifier: MIT\npragma solidity ^0.8.0;\n\ncontract Evidence {\n    enum Role {\n        Admin,\n        Investigator,\n        Validator\n    }\n\n    struct EvidenceRecord {\n        string cid;\n        string originalName;\n        string mimeType;\n        string hash;\n        string encryptedPassword;\n        uint256 timestamp;\n        string name;\n        string description;\n        address owner;\n    }\n\n    address public constant ADMIN_ADDRESS =\n        0x031c7166b87d48E9c99a3B09A6A94Aa55A1969Af;\n\n    mapping(address => Role) public userRoles;\n    mapping(uint256 => EvidenceRecord) private evidenceRecords;\n    mapping(uint256 => mapping(address => bool)) private evidenceAccess;\n    uint256 public evidenceCount;\n\n    event EvidenceAdded(\n        address indexed owner,\n        uint256 indexed evidenceId,\n        string name\n    );\n    event RoleAssigned(address indexed user, Role role);\n    event ValidatorAssigned(\n        uint256 indexed evidenceId,\n        address indexed validator\n    );\n    event AccessGranted(uint256 indexed evidenceId, address indexed user);\n    event AccessRevoked(uint256 indexed evidenceId, address indexed user);\n\n    modifier onlyAdmin() {\n        require(userRoles[msg.sender] == Role.Admin, \"Not an admin\");\n        _;\n    }\n\n    modifier onlyInvestigator() {\n        require(\n            userRoles[msg.sender] == Role.Investigator,\n            \"Not an Investigator\"\n        );\n        _;\n    }\n\n    modifier onlyValidator() {\n        require(userRoles[msg.sender] == Role.Validator, \"Not a validator\");\n        _;\n    }\n\n    modifier onlyOwner(uint256 evidenceId) {\n        require(\n            evidenceRecords[evidenceId].owner != address(0),\n            \"Evidence does not exist\"\n        );\n        require(\n            evidenceRecords[evidenceId].owner == msg.sender,\n            \"Not the evidence owner\"\n        );\n        _;\n    }\n\n    constructor() {\n        userRoles[ADMIN_ADDRESS] = Role.Admin;\n    }\n\n    function assignRole(address _user, Role _role) public {\n        userRoles[_user] = _role;\n        emit RoleAssigned(_user, _role);\n    }\n\n    function getUserRole(address _user) public view returns (Role) {\n        return userRoles[_user];\n    }\n\n    function addEvidence(\n        string memory _cid,\n        string memory _originalName,\n        string memory _mimeType,\n        string memory _hash,\n        string memory _encryptedPassword,\n        string memory _name,\n        string memory _description\n    ) public onlyInvestigator {\n        evidenceCount++;\n        uint256 evidenceId = evidenceCount;\n        evidenceRecords[evidenceId] = EvidenceRecord({\n            cid: _cid,\n            originalName: _originalName,\n            mimeType: _mimeType,\n            hash: _hash,\n            encryptedPassword: _encryptedPassword,\n            timestamp: block.timestamp,\n            name: _name,\n            description: _description,\n            owner: msg.sender\n        });\n\n        evidenceAccess[evidenceId][msg.sender] = true;\n        emit EvidenceAdded(msg.sender, evidenceId, _name);\n    }\n\n    function assignValidator(\n        uint256 _evidenceId,\n        address _validator\n    ) public {\n\n        evidenceAccess[_evidenceId][_validator] = true;\n        emit ValidatorAssigned(_evidenceId, _validator);\n    }\n\n    function grantAccess(\n        uint256 _evidenceId,\n        address _user\n    ) public {\n        evidenceAccess[_evidenceId][_user] = true;\n        emit AccessGranted(_evidenceId, _user);\n    }\n\n    function revokeAccess(\n        uint256 _evidenceId,\n        address _user\n    ) public {\n        evidenceAccess[_evidenceId][_user] = false;\n        emit AccessRevoked(_evidenceId, _user);\n    }\n\n    function getMyEvidenceIds() public view returns (uint256[] memory) {\n        uint256 count = 0;\n\n        for (uint256 i = 0; i < evidenceCount; i++) {\n            if (evidenceRecords[i].owner == msg.sender) {\n                count++;\n            }\n        }\n\n        uint256[] memory result = new uint256[](count);\n        uint256 index = 0;\n\n        for (uint256 i = 0; i < evidenceCount; i++) {\n            if (evidenceRecords[i].owner == msg.sender) {\n                result[index] = i;\n                index++;\n            }\n        }\n\n        return result;\n    }\n\n    function getAccessibleEvidenceIds(\n        address _user\n    ) public view returns (uint256[] memory) {\n        uint256 count = 0;\n\n        // First pass: count how many evidences the user can access\n        for (uint256 i = 0; i < evidenceCount; i++) {\n            if (evidenceAccess[i][_user] || evidenceRecords[i].owner == _user) {\n                count++;\n            }\n        }\n\n        // Second pass: collect the IDs\n        uint256[] memory result = new uint256[](count);\n        uint256 index = 0;\n\n        for (uint256 i = 0; i < evidenceCount; i++) {\n            if (evidenceAccess[i][_user] || evidenceRecords[i].owner == _user) {\n                result[index] = i;\n                index++;\n            }\n        }\n\n        return result;\n    }\n\n    function getEvidence(\n        uint256 _evidenceId\n    )\n        public\n        view\n        returns (\n            string memory cid,\n            string memory originalName,\n            string memory mimeType,\n            string memory name,\n            string memory description,\n            address owner,\n            uint256 timestamp\n        )\n    {\n\n        EvidenceRecord memory evidence = evidenceRecords[_evidenceId];\n        return (\n            evidence.cid,\n            evidence.originalName,\n            evidence.mimeType,\n            evidence.name,\n            evidence.description,\n            evidence.owner,\n            evidence.timestamp\n        );\n    }\n\n    function getEvidenceCount() public view returns (uint256) {\n        return evidenceCount;\n    }\n}\n",
  "sourcePath": "/Users/harshalpatil/Desktop/Private_Workspace/Distributed-EMS-Backend/evidence-contract/contracts/noRBAC.sol",
  "compiler": {
    "name": "solc",
    "version": "0.8.0+commit.c7dfd78e.Emscripten.clang"
  },
  "schemaVersion": "3.4.16",
  "updatedAt": "2025-04-07T11:58:50.894Z",
  "networkType": "ethereum",
  "devdoc": {
    "kind": "dev",
    "methods": {},
    "version": 1
  },
  "userdoc": {
    "kind": "user",
    "methods": {},
    "version": 1
  }
}