{
  "contractName": "Evidence",
  "abi": [
    {
      "inputs": [
        {
          "internalType": "uint256",
          "name": "",
          "type": "uint256"
        }
      ],
      "name": "evidenceRecords",
      "outputs": [
        {
          "internalType": "string",
          "name": "cid",
          "type": "string"
        },
        {
          "internalType": "string",
          "name": "originalName",
          "type": "string"
        },
        {
          "internalType": "string",
          "name": "mimeType",
          "type": "string"
        },
        {
          "internalType": "string",
          "name": "hash",
          "type": "string"
        },
        {
          "internalType": "string",
          "name": "password",
          "type": "string"
        },
        {
          "internalType": "uint256",
          "name": "timestamp",
          "type": "uint256"
        },
        {
          "internalType": "string",
          "name": "name",
          "type": "string"
        },
        {
          "internalType": "string",
          "name": "description",
          "type": "string"
        },
        {
          "internalType": "address",
          "name": "owner",
          "type": "address"
        }
      ],
      "stateMutability": "view",
      "type": "function",
      "constant": true
    },
    {
      "inputs": [
        {
          "internalType": "string",
          "name": "_cid",
          "type": "string"
        },
        {
          "internalType": "string",
          "name": "_originalName",
          "type": "string"
        },
        {
          "internalType": "string",
          "name": "_mimeType",
          "type": "string"
        },
        {
          "internalType": "string",
          "name": "_hash",
          "type": "string"
        },
        {
          "internalType": "string",
          "name": "_password",
          "type": "string"
        },
        {
          "internalType": "string",
          "name": "_name",
          "type": "string"
        },
        {
          "internalType": "string",
          "name": "_description",
          "type": "string"
        }
      ],
      "name": "addEvidence",
      "outputs": [],
      "stateMutability": "nonpayable",
      "type": "function"
    },
    {
      "inputs": [
        {
          "internalType": "uint256",
          "name": "_index",
          "type": "uint256"
        }
      ],
      "name": "getEvidence",
      "outputs": [
        {
          "components": [
            {
              "internalType": "string",
              "name": "cid",
              "type": "string"
            },
            {
              "internalType": "string",
              "name": "originalName",
              "type": "string"
            },
            {
              "internalType": "string",
              "name": "mimeType",
              "type": "string"
            },
            {
              "internalType": "string",
              "name": "hash",
              "type": "string"
            },
            {
              "internalType": "string",
              "name": "password",
              "type": "string"
            },
            {
              "internalType": "uint256",
              "name": "timestamp",
              "type": "uint256"
            },
            {
              "internalType": "string",
              "name": "name",
              "type": "string"
            },
            {
              "internalType": "string",
              "name": "description",
              "type": "string"
            },
            {
              "internalType": "address",
              "name": "owner",
              "type": "address"
            }
          ],
          "internalType": "struct Evidence.EvidenceRecord",
          "name": "",
          "type": "tuple"
        }
      ],
      "stateMutability": "view",
      "type": "function",
      "constant": true
    },
    {
      "inputs": [],
      "name": "getEvidenceCount",
      "outputs": [
        {
          "internalType": "uint256",
          "name": "",
          "type": "uint256"
        }
      ],
      "stateMutability": "view",
      "type": "function",
      "constant": true
    }
  ],
  "bytecode": "0x608060405234801561001057600080fd5b506113c9806100206000396000f3fe608060405234801561001057600080fd5b506004361061004c5760003560e01c80635144db4714610051578063b8d444871461006d578063c956f1431461008b578063eba57a57146100bb575b600080fd5b61006b60048036038101906100669190610d68565b6100f3565b005b61007561029c565b60405161008291906111b4565b60405180910390f35b6100a560048036038101906100a09190610eae565b6102a8565b6040516100b29190611192565b60405180910390f35b6100d560048036038101906100d09190610eae565b6107b0565b6040516100ea999897969594939291906110b4565b60405180910390f35b60006040518061012001604052808981526020018881526020018781526020018681526020018581526020014281526020018481526020018381526020013373ffffffffffffffffffffffffffffffffffffffff1681525090806001815401808255809150506001900390600052602060002090600902016000909190919091506000820151816000019080519060200190610190929190610be6565b5060208201518160010190805190602001906101ad929190610be6565b5060408201518160020190805190602001906101ca929190610be6565b5060608201518160030190805190602001906101e7929190610be6565b506080820151816004019080519060200190610204929190610be6565b5060a0820151816005015560c082015181600601908051906020019061022b929190610be6565b5060e0820151816007019080519060200190610248929190610be6565b506101008201518160080160006101000a81548173ffffffffffffffffffffffffffffffffffffffff021916908373ffffffffffffffffffffffffffffffffffffffff160217905550505050505050505050565b60008080549050905090565b6102b0610c6c565b60008054905082106102f7576040517f08c379a00000000000000000000000000000000000000000000000000000000081526004016102ee90611172565b60405180910390fd5b60008281548110610331577f4e487b7100000000000000000000000000000000000000000000000000000000600052603260045260246000fd5b90600052602060002090600902016040518061012001604052908160008201805461035b906112db565b80601f0160208091040260200160405190810160405280929190818152602001828054610387906112db565b80156103d45780601f106103a9576101008083540402835291602001916103d4565b820191906000526020600020905b8154815290600101906020018083116103b757829003601f168201915b505050505081526020016001820180546103ed906112db565b80601f0160208091040260200160405190810160405280929190818152602001828054610419906112db565b80156104665780601f1061043b57610100808354040283529160200191610466565b820191906000526020600020905b81548152906001019060200180831161044957829003601f168201915b5050505050815260200160028201805461047f906112db565b80601f01602080910402602001604051908101604052809291908181526020018280546104ab906112db565b80156104f85780601f106104cd576101008083540402835291602001916104f8565b820191906000526020600020905b8154815290600101906020018083116104db57829003601f168201915b50505050508152602001600382018054610511906112db565b80601f016020809104026020016040519081016040528092919081815260200182805461053d906112db565b801561058a5780601f1061055f5761010080835404028352916020019161058a565b820191906000526020600020905b81548152906001019060200180831161056d57829003601f168201915b505050505081526020016004820180546105a3906112db565b80601f01602080910402602001604051908101604052809291908181526020018280546105cf906112db565b801561061c5780601f106105f15761010080835404028352916020019161061c565b820191906000526020600020905b8154815290600101906020018083116105ff57829003601f168201915b505050505081526020016005820154815260200160068201805461063f906112db565b80601f016020809104026020016040519081016040528092919081815260200182805461066b906112db565b80156106b85780601f1061068d576101008083540402835291602001916106b8565b820191906000526020600020905b81548152906001019060200180831161069b57829003601f168201915b505050505081526020016007820180546106d1906112db565b80601f01602080910402602001604051908101604052809291908181526020018280546106fd906112db565b801561074a5780601f1061071f5761010080835404028352916020019161074a565b820191906000526020600020905b81548152906001019060200180831161072d57829003601f168201915b505050505081526020016008820160009054906101000a900473ffffffffffffffffffffffffffffffffffffffff1673ffffffffffffffffffffffffffffffffffffffff1673ffffffffffffffffffffffffffffffffffffffff16815250509050919050565b600081815481106107c057600080fd5b90600052602060002090600902016000915090508060000180546107e3906112db565b80601f016020809104026020016040519081016040528092919081815260200182805461080f906112db565b801561085c5780601f106108315761010080835404028352916020019161085c565b820191906000526020600020905b81548152906001019060200180831161083f57829003601f168201915b505050505090806001018054610871906112db565b80601f016020809104026020016040519081016040528092919081815260200182805461089d906112db565b80156108ea5780601f106108bf576101008083540402835291602001916108ea565b820191906000526020600020905b8154815290600101906020018083116108cd57829003601f168201915b5050505050908060020180546108ff906112db565b80601f016020809104026020016040519081016040528092919081815260200182805461092b906112db565b80156109785780601f1061094d57610100808354040283529160200191610978565b820191906000526020600020905b81548152906001019060200180831161095b57829003601f168201915b50505050509080600301805461098d906112db565b80601f01602080910402602001604051908101604052809291908181526020018280546109b9906112db565b8015610a065780601f106109db57610100808354040283529160200191610a06565b820191906000526020600020905b8154815290600101906020018083116109e957829003601f168201915b505050505090806004018054610a1b906112db565b80601f0160208091040260200160405190810160405280929190818152602001828054610a47906112db565b8015610a945780601f10610a6957610100808354040283529160200191610a94565b820191906000526020600020905b815481529060010190602001808311610a7757829003601f168201915b505050505090806005015490806006018054610aaf906112db565b80601f0160208091040260200160405190810160405280929190818152602001828054610adb906112db565b8015610b285780601f10610afd57610100808354040283529160200191610b28565b820191906000526020600020905b815481529060010190602001808311610b0b57829003601f168201915b505050505090806007018054610b3d906112db565b80601f0160208091040260200160405190810160405280929190818152602001828054610b69906112db565b8015610bb65780601f10610b8b57610100808354040283529160200191610bb6565b820191906000526020600020905b815481529060010190602001808311610b9957829003601f168201915b5050505050908060080160009054906101000a900473ffffffffffffffffffffffffffffffffffffffff16905089565b828054610bf2906112db565b90600052602060002090601f016020900481019282610c145760008555610c5b565b82601f10610c2d57805160ff1916838001178555610c5b565b82800160010185558215610c5b579182015b82811115610c5a578251825591602001919060010190610c3f565b5b509050610c689190610cce565b5090565b6040518061012001604052806060815260200160608152602001606081526020016060815260200160608152602001600081526020016060815260200160608152602001600073ffffffffffffffffffffffffffffffffffffffff1681525090565b5b80821115610ce7576000816000905550600101610ccf565b5090565b6000610cfe610cf984611200565b6111cf565b905082815260208101848484011115610d1657600080fd5b610d21848285611299565b509392505050565b600082601f830112610d3a57600080fd5b8135610d4a848260208601610ceb565b91505092915050565b600081359050610d628161137c565b92915050565b600080600080600080600060e0888a031215610d8357600080fd5b600088013567ffffffffffffffff811115610d9d57600080fd5b610da98a828b01610d29565b975050602088013567ffffffffffffffff811115610dc657600080fd5b610dd28a828b01610d29565b965050604088013567ffffffffffffffff811115610def57600080fd5b610dfb8a828b01610d29565b955050606088013567ffffffffffffffff811115610e1857600080fd5b610e248a828b01610d29565b945050608088013567ffffffffffffffff811115610e4157600080fd5b610e4d8a828b01610d29565b93505060a088013567ffffffffffffffff811115610e6a57600080fd5b610e768a828b01610d29565b92505060c088013567ffffffffffffffff811115610e9357600080fd5b610e9f8a828b01610d29565b91505092959891949750929550565b600060208284031215610ec057600080fd5b6000610ece84828501610d53565b91505092915050565b610ee08161125d565b82525050565b610eef8161125d565b82525050565b6000610f0082611230565b610f0a818561123b565b9350610f1a8185602086016112a8565b610f238161136b565b840191505092915050565b6000610f3982611230565b610f43818561124c565b9350610f538185602086016112a8565b610f5c8161136b565b840191505092915050565b6000610f7460138361124c565b91507f496e646578206f7574206f6620626f756e6473000000000000000000000000006000830152602082019050919050565b6000610120830160008301518482036000860152610fc58282610ef5565b91505060208301518482036020860152610fdf8282610ef5565b91505060408301518482036040860152610ff98282610ef5565b915050606083015184820360608601526110138282610ef5565b9150506080830151848203608086015261102d8282610ef5565b91505060a083015161104260a0860182611096565b5060c083015184820360c086015261105a8282610ef5565b91505060e083015184820360e08601526110748282610ef5565b91505061010083015161108b610100860182610ed7565b508091505092915050565b61109f8161128f565b82525050565b6110ae8161128f565b82525050565b60006101208201905081810360008301526110cf818c610f2e565b905081810360208301526110e3818b610f2e565b905081810360408301526110f7818a610f2e565b9050818103606083015261110b8189610f2e565b9050818103608083015261111f8188610f2e565b905061112e60a08301876110a5565b81810360c08301526111408186610f2e565b905081810360e08301526111548185610f2e565b9050611164610100830184610ee6565b9a9950505050505050505050565b6000602082019050818103600083015261118b81610f67565b9050919050565b600060208201905081810360008301526111ac8184610fa7565b905092915050565b60006020820190506111c960008301846110a5565b92915050565b6000604051905081810181811067ffffffffffffffff821117156111f6576111f561133c565b5b8060405250919050565b600067ffffffffffffffff82111561121b5761121a61133c565b5b601f19601f8301169050602081019050919050565b600081519050919050565b600082825260208201905092915050565b600082825260208201905092915050565b60006112688261126f565b9050919050565b600073ffffffffffffffffffffffffffffffffffffffff82169050919050565b6000819050919050565b82818337600083830152505050565b60005b838110156112c65780820151818401526020810190506112ab565b838111156112d5576000848401525b50505050565b600060028204905060018216806112f357607f821691505b602082108114156113075761130661130d565b5b50919050565b7f4e487b7100000000000000000000000000000000000000000000000000000000600052602260045260246000fd5b7f4e487b7100000000000000000000000000000000000000000000000000000000600052604160045260246000fd5b6000601f19601f8301169050919050565b6113858161128f565b811461139057600080fd5b5056fea2646970667358221220343c683d452e0d2f273f52354a844579b8858f0e4987dbc769dd5e45cd7dbc1c64736f6c63430008000033",
  "immutableReferences": {},
  "source": "// SPDX-License-Identifier: MIT\r\npragma solidity ^0.8.0;\r\n\r\ncontract Evidence {\r\n    struct EvidenceRecord {\r\n        string cid;\r\n        string originalName;\r\n        string mimeType;\r\n        string hash; // New field\r\n        string password; // New field\r\n        uint256 timestamp;\r\n        string name; // Evidence name\r\n        string description; // Evidence description\r\n        address owner; // Owner's MetaMask ID\r\n    }\r\n\r\n    EvidenceRecord[] public evidenceRecords;\r\n\r\n    function addEvidence(\r\n        string memory _cid,\r\n        string memory _originalName,\r\n        string memory _mimeType,\r\n        string memory _hash,\r\n        string memory _password,\r\n        string memory _name,\r\n        string memory _description\r\n    ) public {\r\n        evidenceRecords.push(EvidenceRecord({\r\n            cid: _cid,\r\n            originalName: _originalName,\r\n            mimeType: _mimeType,\r\n            hash: _hash,\r\n            password: _password,\r\n            timestamp: block.timestamp,\r\n            name: _name,\r\n            description: _description,\r\n            owner: msg.sender // Store the owner's address\r\n        }));\r\n    }\r\n\r\n    function getEvidence(uint256 _index) public view returns (EvidenceRecord memory) {\r\n        require(_index < evidenceRecords.length, \"Index out of bounds\");\r\n        return evidenceRecords[_index];\r\n    }\r\n\r\n    function getEvidenceCount() public view returns (uint256) {\r\n        return evidenceRecords.length;\r\n    }\r\n}\r\n",
  "sourcePath": "C:\\Users\\Shantanu\\Documents\\Scroll Hacks\\Distributed-EMS-Backend\\evidence-contract\\contracts\\Evidence.sol",
  "compiler": {
    "name": "solc",
    "version": "0.8.0+commit.c7dfd78e.Emscripten.clang"
  },
  "schemaVersion": "3.4.16",
  "updatedAt": "2024-09-29T12:38:11.523Z",
  "networkType": "ethereum",
  "devdoc": {
    "kind": "dev",
    "methods": {},
    "version": 1
  },
  "userdoc": {
    "kind": "user",
    "methods": {},
    "version": 1
  }
}